:020000040000FA
:10000000900C0010E1000000AD110000B5110000DF
:10001000BD110000C5110000CD110000000000005E
:10002000000000000000000000000000D5110000EA
:10003000DD11000000000000E5110000ED110000DE
:10004000F7000000F7000000F7000000F7000000D4
:10005000F7000000F7000000F7000000F7000000C4
:10006000F7000000F7000000F7000000F7000000B4
:10007000F7000000F5110000FD110000051200005E
:100080000D120000151200001D12000025120000C4
:100090002D120000351200003D1200004512000034
:1000A0004D120000551200005D12000065120000A4
:1000B0006D120000751200007D1200008512000014
:1000C0000348854603F062FB00480047870C0000A8
:1000D000900C0010EFF3108072B6704762B6704754
:1000E00005480047FEE7FEE7FEE7FEE7FEE7FEE71E
:1000F000FEE7FEE7FEE7FEE7C100000007490968EA
:10010000012282401143054A116070470349096882
:10011000012282409143014A11607047808004406F
:1001200001203949886339480068394908607047B7
:100130003849394A11600121334A11605160002168
:1001400051600121516000BF2F494968C907C90F9B
:10015000FAD032498868400A400220210143012236
:1001600011432E4A91602E49896B802291432C4A7B
:10017000916300BF2949C968C907C90FFAD0032193
:10018000214A11630121516300215163012151630F
:1001900000BF1D49496BC907C90FFAD01E4909683C
:1001A00049001A4A1160704702211C4A11621C4919
:1001B000896B202291431A4A9163002000E0401C81
:1001C000FF28FCD9704710B5022014490860FFF7DA
:1001D000EBFFFFF7ADFFFFF7A3FF1020FFF78EFF48
:1001E00010BD1049086201210E4A5162002151627E
:1001F0000121516200BF0B49496AC907C90FFAD0F2
:100200000021084A916270474080044004000010B9
:100210000800001000366E0100000010008004404D
:1002200000820440C080044010B50220FFF7D9FFCF
:1002300010BD0000AA2025498860552088607047BD
:1002400003202249086070472148204948607047D0
:1002500020202049486201201F4908614861002090
:1002600048610120486100BF1B484069C007C00FBA
:10027000FAD00120184988611848806B40218843D2
:1002800016498863704710B5FFF7E2FF0F20FFF7AC
:1002900035FFFFF7D9FFFFF7D3FFFFF7CBFF10BD07
:1002A00010B5FFF7F0FF10BD704710B5FFF7C2FFA4
:1002B00010BD0648006804218843044908600846C8
:1002C00000680821884301490860704700400040E9
:1002D000001BB70000800440C0800440008204403E
:1002E00030B47446641E2578641CAB4204D3635D4D
:1002F0005B00E31830BC18471D46F8E7FFFFFFFF1F
:1003000010B50620FFF7FAFEFA480069C008C000E1
:10031000F84908610846006901210843F549086168
:10032000F548406AC008C000F34948620846406A80
:1003300001210843F04948620846806AC008C000AD
:1003400088620846806A01210843EB4988621F20C1
:1003500000F092FB1E2000F08FFB1D2000F08CFBB4
:100360001C2000F089FB10BD10B5002806D0012824
:1003700024D0022842D0032870D15FE0DF4B1B68F5
:1003800001248C40234209D1012A07D1DB4B1B6891
:1003900001248C402343D94C23600EE0D74B1B68CB
:1003A00001248C40234208D0002A06D1D34B1B687D
:1003B00001248C40A343D14C236061E0D04B1B68E7
:1003C00001248C40234209D1012A07D1CC4B1B6860
:1003D00001248C402343CA4C23600EE0C84B1B68A9
:1003E00001248C40234208D0002A06D1C44B1C684B
:1003F00001238B409C43C24B1C6041E0C14B1B68F6
:1004000001248C40234209D1012A07D1BD4B1B682E
:1004100001248C402343BB4C23600EE0B94B1B6886
:1004200001248C40234208D0002A06D1B54B1B681A
:1004300001248C40A343B34C236021E0B24B1B68E2
:1004400001248C4023420AD1012A08D1AE4B1B68FB
:1004500001248C402343AC4C23600FE00FE0AA4BF7
:100460001B6801248C40234208D0002A06D1A64BE9
:100470001B6801248C40A343A34C236000E000BF11
:1004800000BF10BD10B5002806D0012824D00228D6
:1004900042D0032870D15FE09C4BDB6B01248C4081
:1004A000234209D1012A07D1984BDB6B01248C40F0
:1004B0002343964CE3630EE0944BDB6B01248C40AA
:1004C000234208D0002A06D1904BDB6B01248C40DC
:1004D000A3438E4CE36361E08D4BDB6B01248C40C6
:1004E000234209D1012A07D1894BDB6B01248C40BF
:1004F0002343874CE3630EE0854BDB6B01248C4088
:10050000234208D0002A06D1814BDC6B01238B40AB
:100510009C437F4BDC6341E07E4BDB6B01248C40D2
:10052000234209D1012A07D17A4BDB6B01248C408D
:100530002343784CE3630EE0764BDB6B01248C4065
:10054000234208D0002A06D1724BDB6B01248C4079
:10055000A343704CE36321E06F4BDB6B01248C40C1
:1005600023420AD1012A08D16B4BDB6B01248C405A
:100570002343694CE3630FE00FE0674BDB6B01241F
:100580008C40234208D0002A06D1634BDB6B012448
:100590008C40A343604CE36300E000BF00BF10BD8C
:1005A000002806D0012820D002283AD0032871D193
:1005B00053E0564AD26B01238B401A4207D1534A6B
:1005C000D26B01238B401A43504BDA630CE04F4A45
:1005D000D26B01238B401A4206D04C4AD26B0123C6
:1005E0008B409A43494BDA6355E0494AD26B012369
:1005F0008B401A4207D1464AD26B01238B401A43E3
:10060000434BDA630CE0424AD26B01238B401A421F
:1006100006D03F4AD26B01238B409A433C4BDA63AE
:1006200039E03C4AD26B01238B401A4207D1394A48
:10063000D26B01238B401A43364BDA630CE0354A08
:10064000D26B01238B401A4206D0324AD26B01236F
:100650008B409A432F4BDA631DE02F4AD26B012364
:100660008B401A4207D12C4AD26B01238B401A438C
:10067000294BDA630CE0284AD26B01238B401A42E3
:1006800006D0254AD26B01238B409A43224BDA6372
:1006900001E0FFE700BF00BF704710B50246002031
:1006A000002A06D0012A0CD0022A12D0032A35D102
:1006B00017E0164BDB6B01248C40234200D0012055
:1006C0002DE0134BDB6B01248C40234200D0012032
:1006D00025E0104BDB6B01248C40234200D001202D
:1006E0001DE00D4BDB6B01248C40234200D0012028
:1006F00015E00000004004408040044000800050AD
:10070000008001500080025000800350C03F005024
:10071000C03F0150C03F0250C03F035000BF00BF68
:1007200010BD70B5049C002806D001283ED00228D8
:1007300078D0032875D1AFE0002A1AD1D24D6D6868
:1007400001268E40B543D04E7560002B07D135464B
:10075000AD6801268E40B543CB4EB56012E0012B4B
:1007600010D1C94DAD6801268E403543C64EB560E7
:1007700008E0012A06D1C44D6D6801268E4035433C
:10078000C14E7560002C07D1BF4DED6801268E402B
:10079000B543BD4EF56008E0012C06D1BA4DED68B9
:1007A00001268E403543B84EF560B0E0002A1AD1DC
:1007B000B64D6D6801268E40B543B44E7560002B72
:1007C00007D13546AD6801268E40B543AF4EB560C2
:1007D00012E0012B10D1AD4DAD6801268E4035439E
:1007E000AA4EB56008E0012A06D1A84D6D68012621
:1007F0008E403543A54E7560002C07D1A34DED68A2
:1008000001268E40B543A14EF56008E0012C06D1CB
:100810009E4DED6801268E4035439C4EF56076E096
:1008200000E073E0002A1AD1994D6D6801268E40D0
:10083000B543974E7560002B07D13546AD6801264C
:100840008E40B543924EB56012E0012B10D1904D11
:10085000AD6801268E4035438D4EB56008E0012A13
:1008600006D18B4D6D6801268E403543884E7560EC
:10087000002C07D1864DED6801268E40B543844E8D
:10088000F56008E0012C06D1814DED6801268E400F
:1008900035437F4EF5603AE0002A1AD17D4D6D68F0
:1008A00001268E40B5437B4E7560002B07D135463F
:1008B000AD6801268E40B543764EB56012E0012B3F
:1008C00010D1744DAD6801268E403543714EB56030
:1008D00008E0012A06D16F4D6D6801268E40354330
:1008E0006C4E7560002C07D16A4DED6801268E4074
:1008F000B543684EF56008E0012C06D1654DED6802
:1009000001268E403543634EF56000E000BF00BF16
:1009100070BD002806D001280CD0022812D0032870
:1009200020D117E0584A126901238B401A43564BD5
:100930001A6118E0554A126901238B401A43534B40
:100940001A6110E0524A126901238B401A43504B3E
:100950001A6108E04F4A126901238B401A434D4B3C
:100960001A6100E000BF00BF7047002806D00128D0
:100970000CD0022812D0032820D117E0424A126975
:1009800001238B409A43404B1A6118E03F4A126999
:1009900001238B409A433D4B1A6110E03C4A126997
:1009A00001238B409A433A4B1A6108E0394A136994
:1009B00001228A409343374A136100E000BF00BF21
:1009C000704710B502460020002A06D0012A0CD03C
:1009D000022A12D0032A20D117E02B4B9B69012455
:1009E0008C40234200D0012018E0284B9B69012451
:1009F0008C40234200D0012010E0254B9B6901244C
:100A00008C40234200D0012008E0224B9B69012446
:100A10008C40234200D0012000E000BF00BF10BD89
:100A2000002806D001280CD0022812D0032820D19B
:100A300017E0154AD26901238B401A43124BDA6141
:100A400018E0124AD26901238B401A430F4BDA6136
:100A500010E00F4AD26901238B401A430C4BDA6134
:100A600008E00C4AD26901238B401A43094BDA6132
:100A700000E000BF00BF7047C206D20E01219140C6
:100A8000054A11607047000000800050008001504E
:100A9000008002500080035080E100E010B5FA2190
:100AA0004648006802F048FE04464548844201D9A1
:100AB000012010BD2002000A401E424948611F214A
:100AC0000020C04300F043F800203E498861072021
:100AD00008610020EDE700203B49087001203B49F8
:100AE000087000203A49087007203A49087070479A
:100AF00010B5FFF7F0FFFFF7D1FF10BD10B500F004
:100B000010F910BD30480078FF2804D02E48007836
:100B1000401C2D4908702D480078FF2804D02B4830
:100B20000078401C2949087029480078FF2804D023
:100B300027480078401C2649087026480078FF287E
:100B400004D024480078401C22490870704710B532
:100B5000002819DA204A03071B0F083B9B089B005B
:100B6000D2588307DC0EFF23A3409A43CB061B0E0B
:100B70008407E40EA3401A43174B0407240F083CD4
:100B8000A408A4001A5118E0144A03231B02D21827
:100B900083089B00D2588307DC0EFF23A3409A43AF
:100BA000CB061B0E8407E40EA3401A430B4B032411
:100BB00024021B198408A4001A5110BD080000105B
:100BC000FFFFFF0000E000E00C0000100D0000102F
:100BD0000E0000100F0000101CED00E000E100E02E
:100BE00010B500210320FFF7DBFC10BD4F48007853
:100BF000401C4E49087008460078642800DA7047A7
:100C000000204A49087000BFF9E749480078401CB5
:100C100047490870084600781E2800DA704700200F
:100C20004349087000BFF9E710B542480078401CFE
:100C300040490870084600780A2800DA10BD0020F4
:100C40003C49087000F0A6FF00BFF7E710B500F0C0
:100C500097FF01F06AFD10BD704710B500F0BEFFB0
:100C600000F03EFC01F0E9FC10BD7047704710B584
:100C7000FFF7A9FAFFF744FBFFF73AFFFFF7D4FAB3
:100C800000F004FB10BD72B6FFF70AFBFFF7EFFFA1
:100C9000294C01E0FFF709FB601E80B20400F9D186
:100CA000FFF7E5FFFFF7E2FFFFF7FFFA62B6012269
:100CB00000210320FFF758FB32E0FFF7F6FA1F4848
:100CC0000078012805DB00201C490870FFF7CDFFE4
:100CD00026E01B480078042805DB0120184908702D
:100CE000FFF7BBFF1CE017480078082805DB002051
:100CF00014490870FFF7B0FF12E01348007820286D
:100D00000DDB072010490870FFF7A0FFFFF78CFFED
:100D1000FFF77BFFFFF76AFFFFF762FF00E000BF0E
:100D2000CBE710B5FFF7EEFE10BD0000120000107B
:100D30001100001010000010102700000C0000101F
:100D40000D0000100E0000100F00001043075B0F95
:100D50001370C3100B70704702468A4201DD501AAF
:100D600000E0881A80B2704702468A4201DD501ABC
:100D700000E0881AC0B2704710B5014608110A2475
:100D8000604302460B071B0FD018C0B210BDC82924
:100D900006DB32220270401C0A46C83AD1B207E094
:100DA000642905DB31220270401C0A46643AD1B244
:100DB000E04A515C0A110270027830320270401C25
:100DC0000907090F30310170401C00220270704782
:100DD000F8B504460F463E46D74887420DDB01462C
:100DE000384602F0BFFCC5B2284630302070641C83
:100DF000D1486843301A86B202E000202070641C9B
:100E00007D20C00087420EDB0146304602F0AAFC7E
:100E1000C5B2284630302070641C7D20C000684375
:100E2000301A86B202E000202070641C642F0DDBB3
:100E30006421304602F096FCC5B22846303020705E
:100E4000641C64206843301A86B202E000202070DF
:100E5000641C0A2F0DDB0A21304602F083FCC5B268
:100E6000284630302070641C0A206843301A86B24D
:100E700002E000202070641C304630302070641C7A
:100E800000202070F8BD04E020220270401C4A1EA1
:100E9000D1B20029F8D1704704E000220270401C52
:100EA0004A1E91B20029F8D1704730B5044600239C
:100EB00003E02170641C5D1CABB29342F9DB30BDD2
:100EC0000146002001E0421CD0B20A5C002AFAD19F
:100ED000704703E00A780270401C491C0A78002A17
:100EE000F8D10270704705E00B780370401C491C74
:100EF000531EDAB2002AF7D1704705E00B78037071
:100F0000401C491C531E9AB2002AF7D1704770B595
:100F100004460D46134621462A46002901D0002AE0
:100F200001D1002070BDD018884204D9C818904261
:100F300001D90020F6E703E010780870521C491C24
:100F400018465E1EF3B20028F6DC0120EAE700E056
:100F5000401C0278002AFBD103E00A780270401C92
:100F6000491C0A78002AF8D10270704700E0401C42
:100F70000378002BFBD105E00B780370401C491C63
:100F8000531EDAB2002AF7D1704702468A4201D1D5
:100F9000002070470EE010780B78984201DD0120A8
:100FA000F7E710780B78984202DA0020C043F0E7A8
:100FB000521C491C10780028EDD100BFE9E730B57C
:100FC000034614468B4201D1002030BD002210E0C0
:100FD00018780D78A84201DD0120F6E718780D7821
:100FE000A84202DA0020C043EFE75B1C491C501CFA
:100FF000C2B2A242ECDB0020E7E70146002001E09C
:10100000421CD0B20A5C002AFAD1704703E00A7889
:101010000270401C491C0A78002AF8D102707047FF
:1010200003E00A780270401C491C0A78002AF8D1B3
:10103000704705E00B780370401C491C531EDAB260
:10104000002AF7D1704770B504460D461346214675
:101050002A46002901D0002A01D1002070BDD018F5
:10106000884204D9C818904201D90020F6E703E06D
:1010700010780870521C491C18465E1EF3B20028F6
:10108000F6DC0120EAE700E0401C0278002AFBD1F0
:1010900003E00A780270401C491C0A78002AF8D143
:1010A0000270704700E0401C0378002BFBD105E084
:1010B0000B780370401C491C531EDAB2002AF7D18A
:1010C000704702468A4201D1002070470EE0107836
:1010D0000B78984201DD0120F7E710780B789842F1
:1010E00002DA0020C043F0E7521C491C10780028A7
:1010F000EDD100BFE9E730B5034614468B4201D17C
:10110000002030BD002210E018780D78A84201DDE3
:101110000120F6E718780D78A84202DA0020C043D3
:10112000EFE75B1C491C501CC2B2A242ECDB002062
:10113000E7E70000CE37000010270000704700BF2F
:1011400000BF00BFFEE700BF00BF00BFFEE700BF5B
:1011500000BF00BFFEE700BF00BF00BFFEE7704753
:101160007047704710B5FFF7C9FC10BD10B50E48A9
:10117000006801F0C8FB10BD7047704770477047AA
:1011800070477047704710B500F02FF910BD7047D9
:101190007047704710B5FFF78CF810BD7047704767
:1011A00070477047704770478400001010B5FFF714
:1011B000C5FF10BD10B5FFF7C2FF10BD10B5FFF79A
:1011C000C2FF10BD10B5FFF7C2FF10BD10B5FFF78D
:1011D000C2FF10BD10B5FFF7C2FF10BD10B5FFF77D
:1011E000BFFF10BD10B5FFF7BCFF10BD10B5FFF776
:1011F000B9FF10BD10B5FFF7B9FF10BD10B5FFF76F
:10120000BBFF10BD10B5FFF7B8FF10BD10B5FFF75D
:10121000B5FF10BD10B5FFF7B2FF10BD10B5FFF759
:10122000AFFF10BD10B5FFF7ACFF10BD10B5FFF755
:10123000A9FF10BD10B5FFF7A6FF10BD10B5FFF751
:10124000A6FF10BD10B5FFF7A3FF10BD10B5FFF747
:10125000A0FF10BD10B5FFF79DFF10BD10B5FFF743
:101260009DFF10BD10B5FFF79AFF10BD10B5FFF739
:1012700097FF10BD10B5FFF794FF10BD10B5FFF735
:1012800091FF10BD10B5FFF78EFF10BD70B5152092
:1012900001218140874A116000BF0C20FEF72EFF1C
:1012A00001208549886183208449C8608248866915
:1012B00031468348006802F03FFA0509E1214902FE
:1012C000284602F039FA0446200A7C494860E0B218
:1012D00008600846C068802188437849C8600720B4
:1012E00088600846466900BF7448406900200028AD
:1012F000FAD101E07148066870484069C007C00F24
:10130000F8D11520012181406E4A116000BF0720ED
:101310006A4948600520486070BD00216A4801762E
:101320004176E0308175C17541768176002067494C
:10133000C876087700216448E030017670470720BE
:101340005E49486070475D484068C008C0005B491E
:101350004860704730B50446002C05D15A48E0304B
:10136000817DC27D022300E000BF00BF914205DD08
:101370008D1A581E854209D1012030BDC818C1B24E
:101380008D1A581E854201D10120F6E70020F4E7AE
:1013900010B54E48C17E027F0A23914205DD8C1AAA
:1013A000581E844209D1012010BDC818C1B28C1A40
:1013B000581E844201D10120F6E70020F4E772B6FE
:1013C0004148E030417E827E62B6914201D177236E
:1013D00008E0914204DD7820401A8018C3B201E091
:1013E000501AC3B2981EC0B27047F8B5334880682F
:1013F000C7B27F107F077F0F012F37D0022F23D076
:10140000032F02D0062F50D12FE02C484069C5B2DF
:101410002A480068C4B29E20054204D0FFF736FF78
:10142000FFF78DFFF8BDE807C00F0CD02648067EF9
:10143000603884556030007E461C7821304602F0CA
:1014400091F92148017631E01C480068C4B21E4879
:10145000067E603884556030007E461C7821304618
:1014600002F080F91848017620E01FE01348406937
:10147000C5B21548E030817E407E814204D1002112
:101480001148E03001760FE00F48E030817E1B30DC
:10149000445C0A4804600E48807E461C7821304631
:1014A00002F060F90A48817600E000BF00BF00BF8B
:1014B000B8E7000080E100E0808004400080004048
:1014C0000800001000E100E0E80000100803001030
:1014D000C8010010704710B5012000F073FE10BD68
:1014E00010B52C480078002806D0012805D0022825
:1014F0000BD0032841D114E040E000F01FFC00288D
:1015000002D002202349087038E0FFF7E4FFFFF71C
:10151000BDFEFFF702FFFFF712FF03201D49087011
:101520002CE000F0DBF81C48C17D807D814201D0B9
:1015300000F03CFA1848007E002800D01EE0174852
:101540000078002809D1012000F0DDFD0446207854
:1015500012490870608812490880104800780028F5
:101560000AD00F4801880D48007800F0DDFA002805
:1015700002D000200949087000E000BF00BF10BD84
:1015800070B504460D462A462146022000F0EAFCCA
:1015900070BD000018000010C801001014000010F9
:1015A00016000010F7B584B0002500200390002637
:1015B000FA480290049C069800280CD000BF07E06F
:1015C000641C0298844201D1F44C783C681CC5B27A
:1015D000022DF5DB00E0A41C0598801EC6B2002099
:1015E0000390EF4908700698002811D000250CE000
:1015F0002178641C03980818C0B2039002988442B2
:1016000001D1E64C783C681CC5B2B542F0DB0BE07A
:10161000002507E02178641C03980818C0B20390E5
:10162000681CC5B2B542F5DB0398002847D1FFF727
:1016300091FE002843D1D948C830807D6E214843AF
:10164000D649891C4718049C059E069800280FD08F
:1016500000250AE020783870641C7F1C02988442C0
:1016600001D1CE4C783C681CC5B2B542F2DB09E032
:10167000002505E020783870641C7F1C681CC5B20A
:10168000B542F7DBC548C830807D401CC1B2C348B5
:10169000C8308175807D022803DB0021BF48C83037
:1016A0008175BE481838407E8019019078210198D4
:1016B00002F058F8B9481838417607B0F0BDB7487D
:1016C0001838417E0598081801907821019802F099
:1016D00049F8B2481838417600BFEEE7F0B58DB052
:1016E00000200B900A900990089000260790002592
:1016F00072B6AA481838007E0290A8481838407E72
:10170000019062B601990298884201D10DB0F0BDF6
:1017100001990298884205DD01990298401AC0B2E9
:101720000A9008E078210198091A02980818C0B2B6
:101730000A9001200B900A98052800DAE6E79748FE
:101740001838407E95497839441894480C900A9886
:1017500009900B98002827D0002621E02078641CEF
:1017600007900C98844201D18C4C783C07985A28F9
:1017700014D127463878A52810D105A846557F1CD6
:101780000C98874201D1854F783F3A782846691CEA
:10179000CDB203A90A54052D00D1099E701CC6B212
:1017A00009988642DADB1CE0002617E02078641CEA
:1017B000079007985A280FD127463878A5280BD1CB
:1017C00005A846557F1C3A782846691CCDB203A966
:1017D0000A54052D00D1099E701CC6B20998864294
:1017E000E4DB002D04D16D491839029848768DE765
:1017F0006A481838417E6846007D081800907821B4
:10180000009801F0AFFF654818384176407E634983
:10181000783944186846007BC01CC0B20890012D7E
:101820000AD10A990898884205DC20460B9A089943
:10183000FFF7B8FE6AE769E70A990898884205D178
:1018400020460B9A0899FFF7ADFE5FE701260AE0F4
:1018500005A8805D6946097D411A0898814200D13A
:1018600003E0701CC6B2AE42F2DB00BFAE4237DB13
:10187000681E05A9085C6946097D411A08988142DD
:101880001CDA47480078401C454908700846007833
:10189000032812DB002008706846417D007D081A8D
:1018A000C1B23E481838407E081800907821009850
:1018B00001F058FF39481838417627E76846417DDE
:1018C000007D081AC1B235481838407E08180090CB
:1018D0007821009801F046FF30481838417615E726
:1018E00020460B9A0899FFF75DFE00BF0EE7704790
:1018F0001FB52A48C830C07D6E2148432749891C3E
:1019000040180179684601702648C07D6E21484321
:101910002249891C40184179684641702148C07DA0
:101920006E2148431D49891C401881791D48C07D9E
:101930006E225043194A921C8018C0790002084355
:101940001849C97D6E225143144A921C8918097A9C
:10195000090408431349C97D6E2251430F4A921C62
:101960008918497A0906084301900E48C07D6E2205
:1019700050430A4A921C801801460A31082202A8E4
:10198000FFF7B1FA6946084800F021FF012803D1AA
:1019900000210720FFF7F4FD1FBD0000000100102B
:1019A00019000010C80100104000001010B51248C6
:1019B000C07D6E2148431049C6394018C0780028C0
:1019C00004D0012803D0072805D101E006E005E096
:1019D000FFF78EFF02E0FFF78AFF00BF00BF064857
:1019E000C07D401CC1B20448C175C07D022802D12F
:1019F00000210148C17510BDC801001070B55C48D8
:101A0000007E002810D1012159480176817E1B30CB
:101A1000445C1B38807E451C7821284601F0A2FEDC
:101A2000534881765348046070BDF0B585B00020FE
:101A300001900027009050488078002801D105B01F
:101A4000F0BD5A204C490870A5204870084680789F
:101A5000401C887008468078C01CC7B2F81EC0B20F
:101A60000090FFF7ACFCB84235DB4148417E1B30AB
:101A70000E1878300390404DAD1C002407E0297803
:101A80006D1C01980818C0B20190601CC4B2009887
:101A90008442F4DB384D00240AE0287830706D1C55
:101AA000761C0398864201D1314E1B36601CC4B2AD
:101AB000781EA042F1DC0198C043401C30702C48D5
:101AC000407EC01902907821029801F04BFE284810
:101AD00041760120B3E70020B1E7704770B50646B4
:101AE00007202549C8700C1D2448007F1421484355
:101AF0001F49933145180E2200212046FFF7D5F9E2
:101B00000E2229462046FFF7EEF90F20211F88708C
:101B10001A48007F401C194908770846007F0A28A8
:101B200001DB0020087770BD70B504460D4600202B
:101B300011498870072C06D0802C02D0812C06D148
:101B400000E009E008E02846FFF7C8FF04E0284667
:101B5000FFF7C3FF012070BD00BFFFF766FF00283D
:101B600003D0FFF74BFF0120F5E70020F3E700006B
:101B7000C801001000800040250300100803001079
:101B800065480078FF2804D063480078401C62490B
:101B90000870704761480078FF2804D05F480078DB
:101BA000401C5E4908707047002070470120704754
:101BB00004205B49087000205749087070470620D0
:101BC00057490870002054490870704755480078FC
:101BD0000A2801DD012070470020FCE710B55148BC
:101BE0000078FF2804D04F480078401C4D49087009
:101BF00000F0BCF800F048F9494800780300FEF70F
:101C00006FFB09061833484F5657637A8400FFF775
:101C1000CBFF002806D006204149087000203E492D
:101C2000087005E001203E49087000203A4908701C
:101C30006EE0FFF7B9FF002806D00620384908708B
:101C400000203549087010BD36480078322800DA87
:101C50005EE031480078042805DD31480078401CFA
:101C60002F490870EFE753E0FFF79EFF002802D0EE
:101C7000FFF79EFF4CE0FFF7A9FF002808D0284897
:101C80000078401C264908700020234908703FE076
:101C90003EE0FFF789FF002801D0FFF789FF37E01A
:101CA0001D4800780A2801DBFFF789FF30E02FE0AC
:101CB000FFF77CFF002806D001201949087000209A
:101CC0001549087024E023E0FFF770FF002806D0D4
:101CD00001201349087000200F49087018E00F48D0
:101CE00000783C2806DB08200D49087000200B49CD
:101CF00008700DE00CE009480078052804DB00209E
:101D00000649087000BFFEE702E0FFF758FF00BF7A
:101D100000BF00BF97E700001D0000101E0000106C
:101D20001A0000101C00001002204449087070477F
:101D30000520424908707047704770473F48007857
:101D4000042801D1012070470020FCE710B50446AB
:101D5000002C03D001203A49087006E000203849E1
:101D60000870FFF7F0FAFFF7E3FF10BD10B5334836
:101D7000007800280CD031480078052808D0FFF7FB
:101D800025FF002804D1FFF7D8FF00202B49087059
:101D90002A4800780300FEF7A3FA0605132D3644FF
:101DA000450400BFFFF712FF002808D00120FFF70D
:101DB000CDFF0120214908700020224908703BE036
:101DC00020480078002807D1FFF7B6FF1D480078AB
:101DD000401C1C4908702FE01A480078401C194923
:101DE000087008460078102803D1032013490870B2
:101DF00022E021E0FFF7A0FF002012490870032035
:101E00000E49087018E00F480078401C0D49087012
:101E100008460078102800DA0EE004200749087010
:101E20000AE009E0FFF7D2FE002804D10349087058
:101E30000449087000E000BF00BF10BD2000001082
:101E4000180000101F00001002204349087070475E
:101E50000520414908707047704770473E48007838
:101E6000042801D1012070470020FCE700B502469C
:101E7000002A03D001203949087004E000203749C6
:101E80000870FFF7E5FF00BD10B533480078002863
:101E90000CD031480078052808D0FFF797FE0028BD
:101EA00004D1FFF7DAFF00202B4908702A48007898
:101EB0000300FEF715FA0605132D3644450400BF4E
:101EC000FFF784FE002808D00120FFF7CFFF012094
:101ED000214908700020224908703BE02048007822
:101EE000002807D1FFF7B8FF1D480078401C1C49A7
:101EF00008702FE01A480078401C194908700846FD
:101F00000078102803D103201349087022E021E053
:101F1000FFF7A2FF00201249087003200E49087045
:101F200018E00F480078401C0D49087008460078FA
:101F3000102800DA0EE00420074908700AE009E0E2
:101F4000FFF744FE002804D10349087004490870D3
:101F500000E000BF00BF10BD220000108000001094
:101F600021000010F8B50B466E46337072803E2695
:101F700046439F4FBE5D7106490E3E264643BE5DF9
:101F800080273E4035463E264643994FF6197678DF
:101F90007406640E002D13D13E264643F619B61C76
:101FA0008F00F7196E4636883E806E4676887E80B2
:101FB0004E1CF1B20F2900DB0021A14200D1012506
:101FC000002D01D0802631433E264643884FB95527
:101FD0003E264643F6197470F8BDF7B581B00B463E
:101FE0006F463B70039E7E803E264643804FBE5D1B
:101FF0007106490E3E264643BE5D80273E4035466B
:102000003E2646437A4FF61976787406640E002D04
:1020100027D122460EE03E264643754FF619B61CE0
:102020009700F65D9E4200D1FFBD561CF2B20F2A0A
:1020300000DB00228A42EED13E2646436C4FF61961
:10204000B61C8F00F7196E4636883E806E4676883D
:102050007E804E1CF1B20F2900DB0021A14200D18D
:102060000125002D01D0802631433E264643604F96
:10207000B9553E264643F619747000BFD4E7F8B54B
:102080000B4614466E46337074803E264643584FC6
:10209000BE5D7106490E3E264643BE5D80273E402A
:1020A00035463E264643524FF61976787206520E52
:1020B000002D05D0002901D10E2101E04E1EF1B204
:1020C000002A01D10E2201E0561EF2B23E264643FE
:1020D000474FF619B61C9700F7196E4636883E80B2
:1020E0006E4676887E80914200D10125002D01D078
:1020F000802631433E2646433D4FB9553E26464352
:10210000F6197270F8BD70B501460020394D28707F
:102110003E204843364D285C43065B0E3E20484334
:10212000401940784206520E3E20484340194078FC
:10213000802528400446002C13D13E2048432C4DD6
:102140004019801C950040192A4D06882E80408831
:102150006880501CC2B20F2A00DB0022934200D1DB
:102160000124002C01D0802002433E204843204D12
:102170002B543E204843401942701E4870BD30B574
:10218000014600201C4C20703E204843184C00198A
:1021900040784206520E3E20484300194078802481
:1021A00020400346002B0BD13E204843104C001921
:1021B000801C94000019104C0588258040886080A0
:1021C0000D4830BD00223E214143094B5A54802224
:1021D0003E214143C9184A70704710B5002404E0FD
:1021E0002046FFF7EFFF601CC4B2032CF8DB10BDE4
:1021F000940300102400001028000010F8B50446D5
:102200000E46002000900027002C00D1F8BDFDF7FD
:1022100061FF074621686068884202D1207A012860
:102220001BD1656829012069405C002815D029016F
:102230002069401801460EC9C0680EC60C3EF06009
:102240006068401C6060E1686068884201D10020DD
:1022500060600020207201200090002F01D1FDF766
:102260003DFF0098D2E710B50446002C00D110BD08
:10227000206800F02EFD0121C903206800F08FFEC8
:102280000A21206800F01CFE00BFF0E710B5FC48F2
:10229000006800790421084210D0F948006880687D
:1022A00019280BD9F6480068FFF7DDFFF4480068ED
:1022B000007904218843F24909680871F0480068F0
:1022C00000790221084206D0ED4800680079884371
:1022D000EB4909680871EA4800680079082108425A
:1022E00006D0E748006800798843E5490968087125
:1022F00010BD70B50446002C00D170BD606A002886
:1023000004D0616A206800F0C1FD0CE0206800F094
:1023100035FC05462846C206D20E01219140D94A15
:10232000116000BF00BF0A21206800F0C9FD00BF96
:10233000E3E7FFB58DB005460F46002002900190FF
:10234000002D01D111B0F0BD2C68002F00D1F9E7AC
:102350001798022803D1E8683843E86007E0179827
:10236000032803D128693843286100E0EAE70F9881
:102370000890109809901698012809D0022802D0D8
:10238000032810D109E03A200A90002002900BE0C7
:102390003E200A900120029006E01A200A900020B8
:1023A0001090029000E0CDE700BF06A80C90082036
:1023B0000B9000BF2046203000F0EAFB0121C9034A
:1023C0000842F7D1B320059000216846818100269C
:1023D000018241821798022802D0032811D103E01C
:1023E00000206946C8810DE0A7496846C181A74E13
:1023F000A7490182A74941824021059808430590D9
:1024000000E09FE700BF08210A98084214D0029814
:10241000002809D0109881B2684601821098C00047
:10242000C10C6846418207E000216846018210988D
:102430004005C10C6846418228210A980840282896
:1024400006D16946488A0121C90308436946488282
:1024500018210A980840182806D16946488A01219F
:10246000890308436946488238210A98084205D002
:1024700086480643402105980843059002980028A5
:1024800013D0684680890F9989B2014368468181DB
:10249000C0890F99C900C90C01436846C181C08930
:1024A0007D4908436946C8810EE000216846818164
:1024B000C0890F994905C90C01436846C181C0898B
:1024C000764908436946C8810B980007000F8030A1
:1024D000064302210A98084201D0480206432046DA
:1024E0002430059900F066FB6846018A20462830B2
:1024F00000F060FB6846418A20462C3000F05AFB11
:10250000684681892046303000F054FB6846C18916
:102510002046343000F04EFB31462046383000F083
:1025200049FB0020019000902EE0F80FC00724D056
:102530000198002809D180203043014620463830D8
:1025400000F038FB0120019007E0802230469043E4
:1025500001462046383000F02DFB20220098101A4A
:102560008106890EA01800F025FB00BF2046203010
:1025700000F00EFB49490842F8D17F00002F00D13E
:1025800005E00098401C009000982028CDDB00BF9B
:1025900000BFD7E6FEB504460E4617461D46002C82
:1025A00000D1FEBD0220009501903B4632462046F8
:1025B000E168FFF7BEFE0320009501903B463246DE
:1025C00020462169FFF7B5FE00BFEAE7F8B50446EB
:1025D0000D4616461F46002C00D1F8BD3048406815
:1025E000082108432E4948602E4800682E490843B8
:1025F0002C49086000202D490860206800F015FB78
:10260000627912012A4BD118206800F0BCFB2068C7
:1026100000F05FFB3B46324629462046FFF7BAFFF3
:102620002046FFF766FE0120D7E710B50220FFF72E
:10263000C9FD20481249086010BD1FB51E4800782A
:10264000002806D0012805D002280BD0032860D12D
:1026500034E05FE0FFF702FC002802D002201649B8
:10266000087057E0FFF7E1FF03230022FF21243128
:1026700003480068FFF7AAFF03200F49087049E0EC
:102680008400001000E100E00020000000100000C5
:10269000FFFFFFFFFF1F000000C0000000800000E0
:1026A000008004408080044000000200800105405A
:1026B000343800005400001080000010FFF7E6FDE1
:1026C000FE49096888696946FFF798FD012802D12B
:1026D000684601F028F8FA480078002809D102205D
:1026E000FFF711FD04462078F54908706088F54928
:1026F0000880F348007800280AD0F2480188F048A2
:10270000007800F09CFF002802D00020EC490870FF
:1027100000E000BF00BF1FBD70B504460D462A464D
:1027200021460120FFF71EFC70BDE4480068806868
:10273000FF2806D2E14800688068401CDF4909682C
:1027400088607047F7B50023036043600372C2607E
:10275000019B036100210AE00C0103691B19DA4C9B
:102760002546E0CDE468E0C30C3BDC60491C9142A7
:10277000F2D3FEBD70B504460026002C00D170BD1A
:10278000207A012801D10020F9E7FDF7A3FC0646D5
:102790002168481C2060080121694518E16820680B
:1027A000884201D10020206061682068884201D100
:1027B00001202072002E01D1FDF790FCC248014695
:1027C0000EC9C0680EC50C3DE8602846D7E7F8B5CD
:1027D00007460C4600263846FFF7CCFF0546002D7D
:1027E00000D1F8BD6078687060686860002607E016
:1027F00020460830815D284608308155701CC6B2DD
:10280000082EF5DB207828700120EAE7F0B505AC4A
:1028100070CC002800D1F0BD016000270771427123
:102820008760C360046145618661C761089F076274
:10283000099F476200BFEEE7002800D170470162A0
:1028400000BFFBE770B586B004460D460026002C9D
:1028500001D106B070BDFDF73DFC064668680190E9
:1028600028780221084202D00420039001E00020D1
:102870000390012103980843039068780490284648
:1028800008300590206800F0C8FB2878C007C00F0A
:1028900006D0012301AA6169206800F054FC05E01C
:1028A000002301AA6169206800F04DFC002E01D1CF
:1028B000FDF714FC00BFCCE77FB504460D460026AB
:1028C000002C01D104B070BDE069002801D00220C5
:1028D000F8E769462846FFF791FC012801D000205F
:1028E000F0E7FDF7F7FB0646E56120790221884312
:1028F000207169462046FFF7A5FF002E01D1FDF7A4
:10290000EDFB0120DEE7F0B591B004466069401EA2
:10291000012181400691002005900490039000263B
:1029200002900121206800F007FB07900021206839
:1029300000F0A2FB05900221206800F09DFB0746F5
:102940000121206800F098FB0490394606988143E5
:102950000F4605984007400F04D02079082108430E
:10296000207103E020790821884320718021059897
:1029700008420CD00A21206800F0C0FA2079042116
:10298000084320710020A060029808430290059738
:10299000079800287BD000265FE00120B04003901C
:1029A000E06838400399084224D0A069FFF7E2FEAE
:1029B0000546002D00D10DAD284608300C9020684A
:1029C000002308AA711C019000F0E1FC0B986870CC
:1029D00004210A98084206D00898C000C008686020
:1029E000F22028702FE008984005400D6860F02024
:1029F000287028E0206938400399084223D0A06954
:102A0000FFF7B8FE0546002D00D10DAD2846083071
:102A10000C902068002308AA711C019000F0B7FCFC
:102A20000B98687004210A98084206D00898C000E4
:102A3000C0086860F320287005E008984005400D44
:102A40006860F120287003990598884305900598DF
:102A5000002800D103E0701CC6B2202E9DDB00BF11
:102A600007980590002615E00120B04003900399D7
:102A70000798084203D0711C206800F090FA03996F
:102A80000598884305900598002801D104E024E0CA
:102A9000701CC6B2202EE7DB00BFE1682069084346
:102AA000384206D02079012108432071029808435A
:102AB00002900799069808420FD007E084000010A2
:102AC0007C0000107E000010E43800002079022114
:102AD000084320710298084302900121206800F009
:102AE000CBFA049006990498084213D1E0690028B3
:102AF00010D00DA9E069FFF781FB012808D12079EA
:102B00000221884320710DA92046FFF79BFE01E0BA
:102B10000020E0610298002807D0206A002804D035
:102B2000236A3946079A029898470121C903206809
:102B300000F035FA11B0F0BD10B509490948006838
:102B4000FFF7BAFE022809D106480068007908217B
:102B50000843044909680871022010BD0120FCE700
:102B6000400000108400001070470146FA4881427E
:102B700001D1012070470020C043FBE70146F74A1E
:102B80008A1801D10D2001E0F54800BF00BF704751
:102B9000F8B50446FDF79EFA07462068002500E0D8
:102BA0006D1C052DFCDB2668002F01D1FDF796FA80
:102BB0003046F8BD0160002200E0521C052AFCDB13
:102BC0007047F8B505460F461646002411E020462A
:102BD000641C285C0090B44206DA2046641C285C21
:102BE000000200990843009038463F1D0099FFF706
:102BF000E1FFB442EBDBF8BDF7B50646174600240B
:102C000010E001990A1D08460192FFF7C1FF054631
:102C10002046641C3554BC4204DA2804020E2046C7
:102C2000641C3254BC42ECDBFEBD70B50646344633
:102C30002046FFF79AFF0246FFF796FF0121204644
:102C4000FFF7B8FF00BF20462030FFF7A1FF0121AA
:102C5000C9030842F7D1B02120462430FFF7AAFF6C
:102C6000002120463430FFF7A5FF002120463830F0
:102C7000FFF7A0FF01250EE000BF20462030FFF740
:102C800087FF0121C9030842F7D129462046203099
:102C9000FFF790FF6D1C202DEEDD0C212046243027
:102CA000FFF788FF01250EE000BF20462030FFF728
:102CB0006FFF0121C9030842F7D129462046203081
:102CC000FFF778FF6D1C202DEEDD201DFFF760FF64
:102CD00070BD70B5044626463046FFF746FF0246F3
:102CE000FFF742FF3046FFF753FF45086D002946C6
:102CF0003046FFF75FFF70BD70B50446264630468C
:102D0000FFF733FF0246FFF72FFF3046FFF740FF84
:102D100001210843054629463046FFF74BFF70BDA9
:102D2000F8B507460C463E463046FFF71EFF024602
:102D3000FFF71AFF002C01D0012100E00021084616
:102D4000FFF712FF30460C30FFF722FF054685489B
:102D50002840000B401C60600F2000022840000A41
:102D6000401C2060C02028408009401CA0603046E4
:102D70001830FFF70DFF0007800DA906890E0843E4
:102D8000401CE060F8BDF3B581B00C46019F3846A9
:102D9000FFF7EBFE0246FFF7E7FE002C01D0012112
:102DA00000E000210846FFF7DFFE2168022904D376
:102DB0002168102901D8012100E000210846FFF711
:102DC000D3FE6168002904D06168082901D8012177
:102DD00000E000210846FFF7C7FEA168002904D0E3
:102DE000A168042901D8012100E000210846FFF76D
:102DF000BBFE01229202E168914204D8E1680029F9
:102E000001D0012100E000210846FFF7ADFE384661
:102E1000FFF7BEFE054628464122104301463846CC
:102E2000FFF7C8FE6068401E00034E490840064692
:102E30002068401E00020F21090208400643A068D6
:102E4000401E8001C02108400643E068401E800605
:102E5000800E0643314638460C30FFF7ABFEE06883
:102E6000401E8005010F38461830FFF7A3FE4021B1
:102E7000284688430546E807C00F01D06D086D005D
:102E800029463846FFF796FEFEBD704730B504462A
:102E90000D462046FFF769FE0246FFF765FE204615
:102EA000FFF76CFE034629461846FFF7EEFF18466B
:102EB000C206D20E012191402B4A116000BF30BDE5
:102EC000F8B505460C462F463846FFF74EFE02463B
:102ED000FFF74AFE0E222146914301D1012100E075
:102EE00000210846FFF740FE3846FFF751FE204319
:102EF000064631463846FFF75DFEF8BDF8B5054693
:102F00000C462F463846FFF730FE0246FFF72CFEF0
:102F10000E222146914301D1012100E00021084603
:102F2000FFF722FE3846FFF733FEA0430646314640
:102F30003846FFF73FFEF8BDF8B506460F46354662
:102F40002846FFF712FE0246FFF70EFE002F0DD0B7
:102F5000012F1FD110E00000000005400000FBBF62
:102F6000FFFFFFFF0070000000E100E02846103086
:102F7000FFF70EFE04460FE02846FF304130FFF712
:102F800007FE84B22846FF304530FFF701FE0004FB
:102F9000044301E0002400BF00BF2046F8BD70B527
:102FA00006460C4635462846FFF7DFFD0246FFF78A
:102FB000DBFD0121C9038C4203D0002C03D0202C5F
:102FC00001D8012100E000210846FFF7CDFD0120D6
:102FD000C003844203D1281DFFF7DAFD1CE000BFC7
:102FE00028462030FFF7D4FD0121C9030842F7D15C
:102FF000082128462430FFF7DDFDA106890E28466A
:103000002030FFF7D7FD00BF28462030FFF7C0FD76
:103010000121C9030842F7D170BDF8B505460E4637
:103020002F463846FFF7A1FD0246FFF79DFD3846C3
:10303000FFF7AEFD0446002E04D020212046884331
:10304000044601E02020044321463846FFF7B2FD44
:10305000F8BD70B5044625462846FFF786FD0246B2
:10306000FFF782FD2846FFF793FD2021084201D09B
:10307000002070BD0120FCE7F8B506460F46344637
:103080002046FFF772FD0246FFF76EFD002F06D0C7
:10309000012F0DD0022F17D0032F31D122E0201D98
:1030A000FFF776FD0546F849201DFFF783FD29E06F
:1030B000E01DF930FFF76CFD0546E01DFD30FFF720
:1030C00067FD000405431DE02046FF302130FFF777
:1030D0005FFD05462046FF302530FFF759FD00040F
:1030E00005430FE02046FF306130FFF751FD0546F4
:1030F0002046FF306530FFF74BFD0004054301E03B
:10310000002500BF00BF2846F8BDF8B504460E46AE
:10311000174600940098FFF728FD0246FFF724FDAC
:1031200000980830FFF734FD0546D8482840000ACB
:103130003060E8B238600120C003054201D00120B0
:10314000F8BD0020FCE7FFB585B014461E46059D7E
:10315000002001902846FFF708FD0246FFF704FD16
:103160000699202904D80699002901D0012100E000
:1031700000210846FFF7F8FC002E09D0012E07D0E9
:10318000022E05D0032E03D0012E01D0042E01D132
:10319000012100E000210846FFF7E6FC00BF2846B9
:1031A0002030FFF7F5FC0121C9030842F7D1B849E7
:1031B0002068884203D80421A068084202D0012078
:1031C000009001E0002000909320049000216846C8
:1031D000018100278181C1813300FDF781F8050459
:1031E0000D1418252C00FF2001300743A94869461B
:1031F00048810120019020E0FF200130074300209A
:103200006946488119E000206946488115E0A149D6
:1032100068464181A04FA1498181A149C1814021D6
:1032200004980843049008E09A48694648819D4FF5
:103230000120019001E009B0F0BD00BF0821A068A5
:10324000084214D00098002809D0606881B268460E
:1032500081816068C000C10C6846C18107E000211F
:103260006846818160684005C10C6846C18128219B
:10327000A0680840282806D16946C8890121C903E9
:1032800008436946C8811821A0680840182806D15B
:103290006946C8890121890308436946C8813821E4
:1032A000A068084205D07C480743402104980843A1
:1032B000049020210498084304900098002813D01B
:1032C00068460189206880B20143684601814089CF
:1032D0002168C900C90C014368464181408972498F
:1032E0000843694648810CE06846418920684005EA
:1032F000C00C01436846418140896C4908436946D6
:103300004881E0680007000F80300743A068C007CD
:10331000C00F02D00120C00207430221A06808426A
:1033200001D0480207430198002805D029463C31C6
:10333000E2682069FFF745FC284624300499FFF72E
:1033400039FC6846818928462830FFF733FC6846F7
:10335000C18928462C30FFF72DFC68460189284694
:103360003030FFF727FC6846418928463430FFF7A4
:1033700021FC394628463830FFF71CFC06988106A8
:10338000890E28462030FFF715FC00BF53E7FFB534
:1033900083B00F461446039D2846FFF7E6FB02461E
:1033A000FFF7E2FB202F03D8002F01D0012100E01E
:1033B00000210846FFF7D8FB7320029006980028EA
:1033C00003D00821029808430290284684300299CD
:1033D000FFF7F0FBB906890E28468030FFF7EAFBBD
:1033E00000BF28468030FFF7D3FB30490842F8D1B0
:1033F00028468830FFF7CCFB81B26846818028469A
:103400008C30FFF7C5FB81B26846C18028469030FA
:10341000FFF7BEFB81B26846018028469430FFF773
:10342000B7FB81B26846418028469830FFF7B0FB71
:1034300086B20020A060FF200130064204D1684619
:1034400040881449084208D1FF200130064208D0C4
:10345000684640880F49084203D14021A0680843CC
:10346000A0606846408801218903084220D069464F
:103470004888C004C0080988084320600421A06867
:103480000843A06019E00000E0FFFFFF007F00009C
:10349000FF0700000020000000100000FFFFFFFFFA
:1034A000FF1F00000012000000C0000000800000AC
:1034B00068464088C004400D206001208003064219
:1034C00004D0FF210131A0680843A060012000035F
:1034D00006423ED06846408801218903084213D045
:1034E0006946C888C004C00889880843606051499B
:1034F0006068884203D14021A068084215D10821A4
:10350000A0680843A06010E06846C088C004400D71
:10351000606049496068884203D14021A068084240
:1035200003D10821A0680843A0606846C088012133
:10353000C903084203D02821A0680843A060684658
:10354000C08801218903084203D01821A0680843DC
:10355000A0600120C002064203D00121A0680843F8
:10356000A06001208002064203D00221A068084327
:10357000A0600120C003064225D03007000FE060A4
:103580004021A068084205D129469C31E2682069A3
:10359000FFF732FB042128468430FFF70BFBB90606
:1035A000890E28468030FFF705FB00BF2846803093
:1035B000FFF7EEFA0121C9030842F7D18021A06884
:1035C0000843A06001E00020E06007B0F0BD70B5E6
:1035D00006460D4634462046FFF7C7FA0246FFF777
:1035E000C3FA002D03D0202D01D8012100E00021D5
:1035F0000846FFF7B9FA00BF20462030FFF7C8FAA7
:103600000121C9030842F7D1A02120462430FFF749
:10361000D1FA002120463030FFF7CCFA00212046B5
:103620003430FFF7C7FAA906890E20462030FFF78D
:10363000C1FA70BDFFFFFF1FFF070000704770B5A4
:1036400004460D46072C00D104E02846FFF7F6FF9C
:10365000012070BD00BFFFF76FFA012800D1F8E725
:103660000020F6E710B50446FDF792FE002859D178
:1036700022783048C07E142148432E49AD390A547F
:1036800062782C48C07E142148432A49AD3940183D
:1036900042706068C2B22748C07E14214843254961
:1036A000AD3940188270FF21090260680840020AA3
:1036B0002048C07E142148431E49AD394018C270CD
:1036C000FF21090460680840020C1A48C07E1421DA
:1036D00048431849AD39401802716068020E154818
:1036E000C07E142148431349AD3940184271AD31B1
:1036F000C97E142251430F4AAD3A8918881D082209
:10370000A118FDF7F0FB0B48C07E401C0949C876A4
:103710000846C07E0A2801DB0020C8760021072069
:10372000FEF7FAFF10BD10B504462046FFF79AFFDA
:1037300010BD00000803001030B50B460146002004
:103740002022012409E00D46D5409D4205D31D46A7
:103750009540491B2546954040191546521E002D9F
:10376000F1DC30BD70B500242546002801DA0124C3
:103770004042002901DA01254942FFF7DDFFAC4252
:1037800000D04042002C00D0494270BD064C0125BB
:10379000064E05E02046E36807C82B4398471034DF
:1037A000B442F7D3FCF790FC043900002439000040
:1037B00002E008C8121F08C1002AFAD170477047FA
:1037C000002001E001C1121F002AFBD17047000157
:1037D0000203040506070809101112131415161721
:1037E0001819202122232425262728293031323375
:1037F00034353637383940414243444546474849D5
:10380000505152535455565758596061626364651C
:10381000666768697071727374757677787980817C
:1038200082838485868788899091929394959697D0
:10383000989900000F00000008000000040000003C
:10384000020000000F00000008000000040000005B
:10385000040000000F000000080000000400000049
:10386000080000000F000000080000000400000035
:10387000100000000F00000008000000040000001D
:10388000140000000F000000080000000400000009
:10389000280000000F0000000800000004000000E5
:1038A000500000000F0000000800000004000000AD
:1038B000640000000F000000080000000400000089
:1038C000C80000000F000000080000000400000015
:1038D000900100000F00000008000000040000003C
:1038E00020030000000000000000000000000000B5
:1038F00000000000F20800002301000055AA55AAAC
:1039000003020100243900000000001088000000BC
:10391000B0370000AC39000088000010080C00002F
:10392000C0370000000000000000000000000000A0
:103930000000000000000000000000000000000087
:103940000000000000000000000000000000000077
:103950000000000000000000000000003200000035
:1039600050040010000000000000000000000000F3
:103970003200000070070010000005400004000045
:1039800000000000FFFFFF000000007F200000009B
:103990002C000010000000000000000000000000EB
:0C39A0000000000000000000000000001B
:04000005000000C136
:00000001FF
